:100000000C9456010C9480010C9480010C94800196
:100010000C9480010C9480010C9480010C9480015C
:100020000C9480010C9480010C9480010C9480014C
:100030000C9480010C9480010C9480010C941206A5
:100040000C9480010C9480010C9480010C9480012C
:100050000C9480010C9480010C9480010C94DB0EB4
:100060000C9480010C94880A0C9480010C948001FB
:100070000C9480010C9480010C9480010C948001FC
:100080000C9480010C9480010C9480010C948001EC
:100090000C94BD0A0C9480010C9480010C94090905
:1000A0000C9480010C9480010C9480010C948001CC
:1000B0000C9480010C9480010C9480010C948001BC
:1000C0000C9480010C9480010C9480010C94F20A31
:1000D0000C9480010C9480010C94270B0C948001EB
:1000E0000C94800118101B100E10121054101F10C9
:1000F000231029102D10311037103B103F104510E0
:1001000049104F1007634236B79BD8A71A39685673
:1001100018AEBAAB558C1D3CB7CC5763BD6DEDFD29
:10012000753EF6177231BF000000803F08000000E6
:10013000BE922449123EABAAAA2ABECDCCCC4C3EDC
:1001400000000080BEABAAAAAA3E00000000BF00CB
:100150000000803F0000000000084178D3BB4387C7
:10016000D1133D190E3CC3BD4282AD2B3E68EC82DB
:1001700076BED98FE1A93E4C80EFFFBE01C4FF7F60
:100180003F000000000000002100240027002A009A
:100190002D003000330001010000040107010A01B5
:1001A00000002200250028002B002E003100340022
:1001B00002010000050108010B01000020002300DE
:1001C000260029002C002F0032000001000003014E
:1001D00006010901050505050705080808080202CA
:1001E00002020A0A080804040404010101010101D1
:1001F00001010303030303030303040707070C0CB4
:100200000C0C0C0C0C0C020202020606060606067A
:1002100006060B0B0B0B0B0B0B0B0102102020081F
:100220000810204010204080020102010804020151
:1002300001020408102040808040201008040201C0
:100240008004020180402010080402010804020119
:1002500001020408102040800102040810204080A0
:100260000000090A02080B0C0D0706030401000038
:10027000000000000000000000000000000000007E
:10028000000000000000000000000000100F0E0041
:10029000000000000000000000000000000000005E
:1002A00000000000000082010D08270C11241FBE71
:1002B000CFEFD1E2DEBFCDBF12E0A0E0B2E0E0EFD1
:1002C000F9E200E00BBF02C007900D92A03AB1071F
:1002D000D9F716E0A0EAB2E001C01D92AC33B10735
:1002E000E1F712E0CCEAD2E004C02297FE010E94BE
:1002F000F214C63AD107C9F70E94F70C0C94F61411
:100300000C94000080EA92E00E94B80286EC92E031
:100310000E94FB0688EC92E00E94240788EE92E09F
:100320000E942407089587EE95E060E072E00E9445
:10033000330D88EC92E00E94510762E070E00E9469
:10034000691487EE95E04AE050E00E94EF0D87EED9
:1003500095E067E072E00E94330D8091DA0290919F
:10036000DB0262E070E00E94691487EE95E04AE0EB
:1003700050E00E94EF0D87EE95E00E94020E87EE9E
:1003800095E06EE072E00E94330D88EE92E00E94EC
:10039000510762E070E00E94691487EE95E04AE040
:1003A00050E00E94EF0D87EE95E065E172E00E945B
:1003B000330D8091FA029091FB0262E070E00E949E
:1003C000691487EE95E04AE050E00E94EF0D87EE59
:1003D00095E00E94020E0E94230F209108033091A5
:1003E000090340910A0350910B03621B730B840BAA
:1003F000950B633371058105910508F476C00E9461
:10040000230F609308037093090380930A0390936A
:100410000B0380EA92E00E94310587EE95E06CE1E3
:1004200072E00E94330D4091C1025091C20260916E
:10043000C3027091C40287EE95E02AE030E00E948A
:10044000BB0D87EE95E066E272E00E94330D60918D
:10045000BF027091C002882777FD8095982F0E9477
:10046000BE1120E030E040E251E40E942311AB01D4
:10047000BC0187EE95E022E030E00E94A40E87EEFA
:1004800095E064E372E00E94330D6091C1027091C7
:10049000C2028091C3029091C4020E94BE1120E862
:1004A00036EE45EC57E40E94231121EB3CED42E48B
:1004B0005EE30E94D1129B01AC0160E070E080E835
:1004C0009FE30E94BA1020E03AE24DE257E40E9416
:1004D0006E12AB01BC0187EE95E022E030E00E9495
:1004E000A40E87EE95E00E94020E60ED77E080E0BA
:1004F00090E00E94570F08950F931F9307EE15E0A9
:10050000C80140E052EC61E070E00E945C0BC80161
:100510006FE372E00E94190E80EA92E061E070E001
:100520000E94700506EC12E0C8010E94D00688EC1B
:1005300092E060E070E0A8010E94BE0788EE92E0C1
:1005400061E070E0A8010E94BE0768EE73E080E001
:1005500090E00E94570F0E94230F6093080370934E
:10056000090380930A0390930B031F910F91089541
:100570000895A0E0B0E0EFEBF2E00C94BC14EC01C5
:100580002D893E8940E050E06B8D7C8D8D8D9E8D58
:10059000621B730B840B950B2B893C8940E050E068
:1005A0000E9436145B016C01FFE0D594C794B794A8
:1005B000A794FA95D1F76D857E85882777FD80957C
:1005C000982FEBE0660F771F881F991FEA95D1F7E8
:1005D0002F853889442737FD4095542F2A0D3B1D20
:1005E0004C1D5D1D0E949E1479018A01EA0CFB1CC2
:1005F0000C1D1D1D88E090E0A0E0B0E0E80EF91EA3
:100600000A1F1B1FD801C70164E0B595A7959795F0
:1006100087956A95D1F798A38F8F88E590EFAFEF14
:10062000BFEFE80EF91E0A1F1B1FC801B701A80182
:1006300097010E9436143B014C015CE0959487942D
:10064000779467945A95D1F72B813C81442737FDE5
:100650004095542FC801B7010E9436145B016C010C
:100660004BE0D594C794B794A7944A95D1F7898164
:100670009A81AA2797FDA095BA2F32E0880F991F7B
:10068000AA1FBB1F3A95D1F7A80EB91ECA1EDB1EC2
:1006900029853A85442737FD4095542FC401B3017D
:1006A0000E9436142BE095958795779567952A9546
:1006B000D1F7A60EB71EC81ED91E5DA02D813E81A2
:1006C000442737FD4095542FC801B7010E943614C6
:1006D0007B018C018DE015950795F794E7948A9539
:1006E000D1F782E090E0A0E0B0E0E80EF91E0A1F2A
:1006F0001B1F2F813885442737FD4095542FC40197
:10070000B3010E943614BC01992777FD9095892F7B
:10071000E60EF71E081F191FA2E015950795F7941E
:10072000E794AA95D1F780E090E8A0E0B0E0E80E69
:10073000F91E0A1F1B1F29893A8940E050E0C801B1
:10074000B7010E9436147B018C01FFE016950795D6
:10075000F794E794FA95D1F7052C04C0AA0CBB1CBA
:10076000CC1CDD1C0A94D2F782E090E0A0E0B0E05F
:10077000A80EB91ECA1EDB1EC601B50124E030E07A
:1007800040E050E00E949E146F89788D898D9A8D8B
:10079000621B730B840B950B20E533EC40E050E0BB
:1007A000052C04C055954795379527950A94D2F79F
:1007B0000E94361497FD0DC0660F771F881F991F82
:1007C000A80197010E947C14C901DA015C016D0146
:1007D0000AC0A80197010E947C1459016A01AA0C61
:1007E000BB1CCC1CDD1C5527D7FC5A954D2D3C2D30
:1007F0002B2DCA01B9010E9436142EED3BE040E0DA
:1008000050E00E9436147B018C01C601B50123E43F
:1008100033EE4FEF5FEF0E943614BC01992777FD4E
:100820009095892F6153714F8F4F9F4F78011127FA
:10083000F7FC1095012F6E0D7F1D801F911F24E086
:1008400095958795779567952A95D1F76A0D7B1DC4
:100850008C1D9D1D69A37AA38BA39CA3CDB7DEB786
:10086000EFE00C94D8140F931F930AE613E0C8012D
:1008700067E770E00E94EC07C80164EF70E00E9437
:100880003308C8016EE270E00E943308C8010E947C
:1008900036081F910F910895EF92FF920F931F93C7
:1008A0007C010AE613E0C80167E770E00E94EC07EC
:1008B000C80164EF70E00E943308F70165A170E0A1
:1008C000A6E0660F771FAA95E1F76C5C7F4FC80121
:1008D0000E943308C8010E9436081F910F91FF90B3
:1008E000EF900895CF93DF93EC018AE693E067E7FA
:1008F00070E00E94EC078AE693E066EF70E00E94E9
:1009000033088AE693E00E9436088AE693E067E7B8
:1009100070E00E94EC078AE693E067E770E042E04F
:1009200050E00E9453088AE693E00E94F60788236D
:10093000D1F38AE693E00E94FC0790E0A0E0B0E0EB
:100940008B8F9C8FAD8FBE8F8AE693E00E94F60757
:100950008823D1F38AE693E00E94FC0790E0A0E0B0
:10096000B0E02B8D3C8D4D8D5E8D542F432F322F5B
:100970002227822B932BA42BB52B8B8F9C8FAD8F93
:10098000BE8FDF91CF910895A0E0B0E0EAECF4E0F3
:100990000C94C414EC018AE693E067E770E00E94CF
:1009A000EC078AE693E066EF70E00E9433088AE67F
:1009B00093E00E9436088AE693E067E770E043E040
:1009C00050E00E9453088AE693E00E94F6078823CD
:1009D000D1F38AE693E00E94FC07D82E8AE693E0E2
:1009E0000E94F6078823D1F38AE693E00E94FC0771
:1009F000E82E8AE693E00E94F6078823D1F38AE680
:100A000093E00E94FC07FF2400E010E0102F0F2D60
:100A1000FE2CEE242D2D30E040E050E0A9013327DC
:100A20002227E22AF32A042B152B90E0A0E0B0E065
:100A3000E82AF92A0A2B1B2B2DA188E090E0821BC3
:100A4000910904C015950795F794E7948A95D2F714
:100A5000EF8AF88E098F1A8FCDB7DEB7E7E00C94D6
:100A6000E014CF93DF93EC018881813079F48EE13B
:100A70000E948A10892B81F1CE010E947204888124
:100A80008F5F8883CE010E944C0426C0853089F494
:100A90008EE10E948A10892BF9F0CE010E94C404D5
:100AA000CE010E94B90281E08883CE010E94330406
:100AB00011C08EE10E948A10892B71F0CE010E9434
:100AC000C404CE010E94B90288818F5F8883CE0161
:100AD0000E944C0481E001C080E0DF91CF91089535
:100AE000A6E1B0E0E6E7F5E00C94C5147C018B01CB
:100AF0008EE160E00E94DD0F012B21F08AE693E099
:100B00000E94560883E0F70185A310828AE693E0ED
:100B100067E770E00E94EC078AE693E06AEA70E01B
:100B20000E9433088AE693E00E9436088AE693E042
:100B300067E770E046E150E00E9453088E010F5FC6
:100B40001F4F07C08AE693E00E94FC07F8018193DB
:100B50008F018AE693E00E94F607882399F799812E
:100B600080E02A8130E0822B932BF70192838183EE
:100B70009B8180E02C8130E0822B932B94838383B4
:100B80009D8180E02E8130E0822B932B968385839C
:100B90009F8180E0288530E0822B932B928B818B84
:100BA000998580E02A8530E0822B932B948B838B70
:100BB0009B8580E02C8530E0822B932B968B858B58
:100BC0009D8580E02E8530E0822B932B9087878354
:100BD0009F8580E0288930E0822B932B9287818744
:100BE000998980E02A8930E0822B932B9487838730
:100BF0009B8980E02C8930E0822B932B9687858718
:100C00009D8980E02E8930E0822B932B908B878703
:100C1000C7010E94330481E0F70180836696E6E015
:100C20000C94E1141F920F920FB60F920BB60F9215
:100C300011242F933F934F935F936F937F938F93E1
:100C40009F93AF93BF93CF93DF93EF93FF9344981A
:100C50008091D00085FFFCCF87E88093D6008091FB
:100C6000D00087FFFCCF8091D600C2E6D2E040E002
:100C700050E0DA01A45FBC4F8C91803170F0FA0132
:100C8000EE0FFF1FEC5EFC4F80819181969587955A
:100C9000918380838C9186958C938091D00085FF81
:100CA000FCCF1092D6008091D00087FFFCCF20911E
:100CB000D60098818091D00085FFFCCF9093D6001C
:100CC0008091D00087FFFCCF8091D600722F60E02A
:100CD000FA01EE0FFF1FEC5EFC4F2081318190E0A6
:100CE000862B972B63E0969587956A95E1F7280FF9
:100CF000391F31832083FA01E45FFC4F80818F5FCD
:100D000080834F5F5F4F21964830510509F0B1CF86
:100D1000449A88E68093B200FF91EF91DF91CF91E2
:100D2000BF91AF919F918F917F916F915F914F9103
:100D30003F912F910F900BBE0F900FBE0F901F9001
:100D40001895CF93DF93C62FD0E0FE01E45FFC4FF0
:100D500080818230E8F3F894DE01A45FBC4F8C916F
:100D6000882319F420E030E00CC0FE01EE0FFF1FD5
:100D7000EC5EFC4F808191816C9170E00E94551473
:100D80009B01FE01EE0FFF1FEC5EFC4F11821082F3
:100D9000C45FDC4F18827894C901DF91CF91089528
:100DA00081E261E00E94DD0F81E261E00E94551066
:100DB000A4EDB0E011961C921E92E1E0F1E080817A
:100DC0008460808380EC8093D20088E18093D1009E
:100DD00082E090E011969C938E93E0E7F0E0108221
:100DE0001092B00086E08093B1001092B20081E0D2
:100DF00087BB808308950F931F938C010E9408077F
:100E00008DE592E0F801918380831F910F91089501
:100E1000FC018EE692E09183808308950895089501
:100E2000FC01718B608B0895882777FD8095982F42
:100E30000E94BE112CE53FE842E250E40E946E128F
:100E40000E948B11CB0108950F931F938C010E9478
:100E50003B0786E792E0F8019183808385E892E082
:100E6000978B868B8FE090E0918F808F1F910F91F1
:100E70000895CB010895FC0184E892E0918380837A
:100E8000158214821782168284E090E0918B808B09
:100E90000895FC01738F628F558F448F378F268F93
:100EA00008950F931F93CF93DF93EC018A819B8169
:100EB00023E08F3E9207A9F4AC81BD81109771F0B9
:100EC000ED91FC9111970280F381E02DCD0167E057
:100ED0000995959587959595879505C01B8A1A8ADA
:100EE00004C00E94A70E9B8B8A8BE881F9816A89D6
:100EF0007B890680F781E02DCE010995288D398DFB
:100F0000821793073CF04E895F899C014817590767
:100F10000CF49A013D8B2C8B08891989023011053C
:100F200034F18E819F810196B8010E946914FC0101
:100F30009F838E833496EE0FFF1FEC0FFD1F3183CE
:100F40002083FE0140E050E020E030E006C08681D2
:100F50009781480F591F2F5F3F4F32962017310757
:100F6000B4F3CA01B8010E9469147D8B6C8B8C8923
:100F70009D89DF91CF911F910F9108950F931F933A
:100F8000CF93DF93EC018A017B836A8383E06F3E1A
:100F9000780729F0862F60E00E94DD0F02C0198AD1
:100FA000188A0115110511F01D830C83E881F98160
:100FB0000084F185E02DCE0109958C899D89998762
:100FC00088879B878A879D878C879F878E87DF91FD
:100FD000CF911F910F91089581E0809369036093F1
:100FE00046031092670310926803089580914503A9
:100FF00090914403891B0895909144038091450387
:10100000981710F080E00895E92FF0E0EC5DFC4FB8
:1010100080819F5F9093440308950895A1E0B0E01C
:10102000E4E1F8E00C94C914698380916903882392
:1010300089F080916803803290F480916703E82FF3
:10104000F0E0E95BFC4F60838F5F809367038093E0
:10105000680305C0CE01019661E00E94EE0821966A
:10106000E2E00C94E5140E940E0808958091460376
:1010700067E473E04091680321E00E94AB0810929E
:10108000670310926803109269030895413208F0D3
:1010900040E2862F64E273E00E94740810924403D9
:1010A0008093450308950E944608089510924403D2
:1010B0001092450310926703109268030E94610822
:1010C000089510926B03589A599AE9EBF0E08081E9
:1010D0008E7F808380818D7F808388E48093B800B9
:1010E00085E48093BC000895982F413210F040E0D1
:1010F00030C080916B038823E1F781E080936B031C
:101100008FEF8093D6031092910341504093920346
:101110004F5F990F916090936C0385EE8093BC00B4
:1011200080916B038130E1F380919103841710F477
:101130004091910320E030E00AC0FB01E20FF31F71
:10114000D901AF58BC4F8C9180832F5F3F4F24173C
:10115000A0F3842F08951F93582F122F413210F0BF
:1011600081E03AC080916B038823E1F782E08093AD
:101170006B038FEF8093D6031092910340939203F9
:10118000A1E7B3E0FB0102C081918D938E2F861BF6
:101190008417D0F3852F90E0880F991F80936C03FC
:1011A00085EE8093BC00112321F080916B03823087
:1011B000E1F38091D6038F3F11F480E00DC0809160
:1011C000D603803211F482E007C08091D6038033C9
:1011D00011F084E001C083E01F910895482F61322F
:1011E00010F081E0089580916B03843011F082E06B
:1011F00008956093B403A3E9B3E0842F9C01F9013F
:1012000002C081918D938E2F841B8617D0F380E0CE
:1012100008951F920F920FB60F920BB60F921124E2
:101220002F933F934F935F936F937F938F939F93EE
:10123000AF93BF93EF93FF938091B90090E0887FC5
:1012400090708036910509F4DCC081369105CCF5AB
:101250008832910509F47BC089329105B4F480315C
:10126000910509F46FC0813191053CF4009709F4B0
:1012700031C1089709F039C165C08831910509F479
:1012800066C0809709F031C17DC08034910509F4B2
:101290009FC08134910544F48033910509F47DC0E9
:1012A000C89709F022C184C08035910509F484C033
:1012B0008835910509F491C08834910509F015C16C
:1012C00098C08839910509F4FDC089399105ECF47D
:1012D0008837910509F495C0893791054CF4883613
:1012E000910509F48EC08037910509F0FEC089C0D0
:1012F0008838910509F4E6C08039910509F487C062
:101300008038910509F0F1C082C0803B910509F455
:10131000B0C0813B91054CF4803A910509F489C035
:10132000883A910509F0E1C0A4C0803C910509F418
:10133000CDC0883C910509F4C9C0883B910509F0EE
:10134000D4C0ACC080916C038093BB00B9C09091B5
:10135000910380919203981768F490919103E92F7B
:10136000F0E0EF58FC4F80818093BB009F5F90932B
:101370009103A6C085ED8093BC008091BC0084FDE4
:10138000FCCFB1C080E28093D60385ED8093BC0092
:101390008091BC0084FDFCCFA6C080E38093D6037F
:1013A00085ED8093BC008091BC0084FDFCCF9BC088
:1013B00088E38093D6038AC0809191039091BB000B
:1013C000E82FF0E0EF58FC4F90838F5F80939103FC
:1013D000909191038091920371C0809191039091BB
:1013E000BB00E82FF0E0EF58FC4F90838F5F8093B5
:1013F000910385ED8093BC008091BC0084FDFCCFFF
:1014000072C083E080936B031092D50359C0809122
:10141000D503803208F056C08091D5039091BB006F
:10142000E82FF0E0EB54FC4F90838F5F8093D5035F
:1014300047C08091D503803230F4E091D503F0E0CD
:10144000EB54FC4F108285ED8093BC008091BC0072
:1014500084FDFCCF10926B036091D503E0916F0384
:10146000F091700385EB93E070E009951092D5033D
:101470002DC084E080936B031092B3031092B403E9
:10148000E0916D03F0916E0309958091B403882378
:1014900029F481E08093B403109293039091B303F5
:1014A000E92FF0E0ED56FC4F80818093BB009F5FF9
:1014B0009093B3039091B3038091B403981710F401
:1014C00085EC01C085E88093BC000FC085EC80935B
:1014D000BC0009C01092D60385ED8093BC008091BA
:1014E000BC0084FDFCCF10926B03FF91EF91BF9184
:1014F000AF919F918F917F916F915F914F913F91AC
:101500002F910F900BBE0F900FBE0F901F9018954C
:101510001F920F920FB60F920BB60F9211242F93BA
:101520003F934F938F939F93EF93FF934091C60008
:10153000E0915704F091580431969F012F77307055
:1015400031978091590490915A042817390739F03E
:10155000E952FC4F40833093580420935704FF9185
:10156000EF919F918F914F913F912F910F900BBED3
:101570000F900FBE0F901F9018951F920F920FB6ED
:101580000F920BB60F9211242F933F934F938F938B
:101590009F93EF93FF934091CE00E091DB04F09195
:1015A000DC0431969F012F77307031978091DD04F4
:1015B0009091DE042817390739F0E55AFB4F408334
:1015C0003093DC042093DB04FF91EF919F918F9186
:1015D0004F913F912F910F900BBE0F900FBE0F9028
:1015E0001F9018951F920F920FB60F920BB60F9285
:1015F00011242F933F934F938F939F93EF93FF93D8
:101600004091D600E0915F05F091600531969F0111
:101610002F7730703197809161059091620528177E
:10162000390739F0E152FB4F408330936005209336
:101630005F05FF91EF919F918F914F913F912F9176
:101640000F900BBE0F900FBE0F901F9018951F921A
:101650000F920FB60F920BB60F9211242F933F9358
:101660004F938F939F93EF93FF9340913601E091B7
:10167000E305F091E40531969F012F7730703197A3
:101680008091E5059091E6052817390739F0ED5965
:10169000FA4F40833093E4052093E305FF91EF91E7
:1016A0009F918F914F913F912F910F900BBE0F9073
:1016B0000FBE0F901F901895CF93DF93EC019A0106
:1016C000AB01E885F985203081EE380780E04807D6
:1016D00080E0580709F449C081E090E00A8802C020
:1016E000880F991F0A94E2F7808360E079E08DE328
:1016F00090E00E949E142150304040405040CA016A
:10170000B90122E030E040E050E00E949E14EC81FC
:10171000FD813083EE81FF812083EA85FB85208176
:1017200041E050E0CA010E8402C0880F991F0A945C
:10173000E2F7282B2083EA85FB852081CA010F84EC
:1017400002C0880F991F0A94E2F7282B2083EA85AC
:10175000FB858081088802C0440F551F0A94E2F778
:10176000842B8083DF91CF910895108220E130E0B7
:10177000CECFDC011296ED91FC911397E058FF4F0C
:101780002191319180819181281B390B2F77307005
:10179000C9010895DC011296ED91FC911397EE5763
:1017A000FF4F2081318192918291E058F040821761
:1017B000930719F42FEF3FEF05C0E20FF31F80816D
:1017C000282F30E0C9010895DC011296ED91FC91BB
:1017D0001397DF01AE57BF4F2D913C911197E05801
:1017E000FF4F80819181E058F0408217930719F4F0
:1017F0002FEF3FEF0BC0E20FF31F80812F5F3F4FB2
:101800002F7730702D933C93282F30E0C901089535
:10181000DC011296ED91FC911397EE57FF4F8081FA
:101820009181929382930895FC01A085B1852189CD
:101830008C9190E0022E02C0959587950A94E2F76C
:1018400080FFF6CF0484F585E02D6083089522E9BA
:1018500032E03093E8052093E70587ED93E090931D
:10186000EA058093E90585EC90E09093EC05809380
:10187000EB0584EC90E09093EE058093ED0580EC11
:1018800090E09093F0058093EF0581EC90E09093C9
:10189000F2058093F10586EC90E09093F405809337
:1018A000F305E4E0E093F50573E07093F60567E077
:1018B0006093F70555E05093F80541E04093F90532
:1018C0003093FB052093FA058BE594E09093FD059A
:1018D0008093FC058DEC90E09093FF058093FE05CE
:1018E0008CEC90E0909301068093000688EC90E0E9
:1018F000909303068093020689EC90E0909305068E
:10190000809304068EEC90E0909307068093060681
:10191000E09308067093090660930A0650930B063D
:1019200040930C0630930E0620930D068FED94E045
:101930009093100680930F0685ED90E09093120629
:101940008093110684ED90E0909314068093130623
:1019500080ED90E0909316068093150681ED90E05F
:10196000909318068093170686ED90E090931A06E0
:1019700080931906E0931B0670931C0660931D0666
:1019800050931E0640931F06309321062093200695
:1019900083E695E0909323068093220685E391E009
:1019A000909325068093240684E391E09093270684
:1019B0008093260680E391E0909329068093280681
:1019C00081E391E090932B0680932A0686E391E0D1
:1019D00090932D0680932C06E0932E0670932F068D
:1019E00060933006509331064093320608950E946A
:1019F0007B0F0E947C020E949301FDCF0F931F93E7
:101A0000CF93DF938C01EB0109C02196D801ED91B2
:101A1000FC910190F081E02DC80109956881662351
:101A2000A1F7DF91CF911F910F910895EF92FF924F
:101A30000F931F93CF93DF938C017B01EA010CC0BE
:101A4000D7016D917D01D801ED91FC910190F0815C
:101A5000E02DC80109952197209791F7CDB7DEB702
:101A6000E6E00C94E114DC01ED91FC910280F3813D
:101A7000E02D09950895A0E2B0E0E1E4FDE00C94CA
:101A8000B9141C016A017B014115510561057105FD
:101A900049F440E350E060E070E020E030E00E9474
:101AA000BB0D56C0882499245401422E5524662427
:101AB000772401E010E00C0F1D1F080D191DC70150
:101AC000B601A30192010E947C14F801608308947E
:101AD000811C911CA11CB11CC701B601A30192017C
:101AE0000E947C14C901DA016C017D01C114D1048A
:101AF000E104F104F1F681E0E82EF12CEC0EFD1E7C
:101B0000E80CF91C3E010894611C711CD501C4014C
:101B10000197A109B1096C01C818D90816C0F601CE
:101B2000EE0DFF1D40814A3010F4405D01C0495C5C
:101B3000552747FD5095652F752FC10120E030E0F6
:101B40000E94BB0D0894E108F1086E147F0439F778
:101B5000A096E2E10C94D514DC012115310541F485
:101B6000ED91FC910190F081E02D642F099508958D
:101B70000E943B0D0895EF92FF920F931F93CF9316
:101B8000DF93EC017A018B012115310541F4E881E5
:101B9000F9810190F081E02D642F09951BC02A3056
:101BA0003105B1F477FF10C04DE250E060E070E025
:101BB00020E030E00E94BB0D10950095F094E09479
:101BC000E11CF11C011D111DCE01B801A7012AE085
:101BD0000E943B0DCDB7DEB7E6E00C94E114EF9226
:101BE000FF920F931F937B019A010027F7FC00954A
:101BF000102FB801A7010E94BB0D1F910F91FF90FC
:101C0000EF9008950F931F938C014DE050E060E03A
:101C100070E020E030E00E94BB0DC8014AE050E0D7
:101C200060E070E020E030E00E94BB0D1F910F915A
:101C300008950F931F938C010E94330DC8010E94D9
:101C4000020E1F910F910895A0E0B0E0EAE2FEE0DD
:101C50000C94C014EC017A018B01922ECB01BA01D5
:101C600020E030E040E050E00E941F1188236CF437
:101C7000CE014DE250E060E070E020E030E00E94F4
:101C8000BB0D17FB109517F9109520E030E040E0F0
:101C90005FE3AA240BC0CA01B90120E030E040E2B2
:101CA00051E40E9423119B01AC01A394A91498F361
:101CB000C801B7010E94BB105B016C010E9490112A
:101CC0007B018C01CE01B801A7012AE030E00E941F
:101CD000AC0D992029F0CE0166E572E00E94330D2B
:101CE000C801B7010E94BC119B01AC01C601B5013E
:101CF0000E94BA1022C020E030E040E251E40E948D
:101D00006E127B018C010E948B115B016C01CC2453
:101D1000B7FCC094DC2CCE01B601A5012AE030E06E
:101D20000E94BB0DC601B5010E94BE119B01AC0112
:101D3000C801B7010E94BA109A949920E1F6CDB774
:101D4000DEB7EBE00C94DC140E94240E0895382FCB
:101D5000863308F0365320917B00832F8695869535
:101D6000869590E08170907043E0880F991F4A95A6
:101D7000E1F7277F282B20937B0037708091580252
:101D80008295880F880F807C832B80937C008091C4
:101D90007A00806480937A0080917A0086FDFCCF7F
:101DA0002091780040917900942F80E030E0282B3A
:101DB000392BC90108951F920F920FB60F9211246B
:101DC0002F933F938F939F93AF93BF938091370649
:101DD00090913806A0913906B0913A0630913B06B1
:101DE0000196A11DB11D232F2D5F2D3720F02D57FA
:101DF0000196A11DB11D20933B0680933706909359
:101E00003806A0933906B0933A0680913306909134
:101E10003406A0913506B09136060196A11DB11D7C
:101E20008093330690933406A0933506B09336061C
:101E3000BF91AF919F918F913F912F910F900FBEC6
:101E40000F901F9018958FB7F89420913706309116
:101E500038064091390650913A068FBFB901CA0140
:101E600008959FB7F894209133063091340640913D
:101E700035065091360686B5A89B06C08F3F21F0E7
:101E80002F5F3F4F4F4F5F4F9FBF542F432F322F36
:101E90002227280F311D411D511D82E0220F331FC3
:101EA000441F551F8A95D1F7B901CA010895EF92D1
:101EB000FF920F931F93CF93DF937B018C010E94BE
:101EC000310FEB010EC00E94310F6C1B7D0B685E61
:101ED0007340C8F30894E108F10801091109C851D9
:101EE000DC4FE114F1040105110569F7CDB7DEB748
:101EF000E6E00C94E114789484B5826084BD84B5E6
:101F0000816084BD85B5826085BD85B5816085BDF4
:101F1000EEE6F0E0808181608083E1E8F0E010820D
:101F2000808182608083808181608083E0E8F0E04E
:101F3000808181608083E1EBF0E080818460808338
:101F4000E0EBF0E0808181608083E1E9F0E0808176
:101F500082608083808181608083E0E9F0E080811D
:101F600081608083E1EAF0E080818260808380810B
:101F700081608083E0EAF0E0808181608083E1E23B
:101F8000F1E0808182608083808181608083E0E2F3
:101F9000F1E0808181608083EAE7F0E08081846005
:101FA0008083808182608083808181608083808162
:101FB000806880831092C1000895482F50E0CA01C4
:101FC000865E9D4FFC0124914C525E4FFA01849134
:101FD0008823C1F0E82FF0E0EE0FFF1FEA57FE4F15
:101FE000A591B491662341F49FB7F8948C91209504
:101FF00082238C939FBF08959FB7F8948C91822B76
:102000008C939FBF089590E0FC013197E031F1057A
:1020100008F04AC0EE58FF4F0C94F01480918000F5
:102020008F7703C0809180008F7D8093800008951A
:1020300084B58F7702C084B58F7D84BD089580916B
:10204000B0008F7703C08091B0008F7D8093B00087
:102050000895809190008F7707C0809190008F7DC8
:1020600003C080919000877F8093900008958091B5
:10207000A0008F7707C08091A0008F7D03C0809162
:10208000A000877F8093A0000895809120018F7722
:1020900003C0809120018F7D80932001089580915D
:1020A0002001877F809320010895FF920F931F9353
:1020B000F62E482F50E0CA01805A9D4FFC01249112
:1020C000CA01865E9D4FFC0114914C525E4FFA018D
:1020D00004910023D9F0222319F0822F0E940310CB
:1020E000E02FF0E0EE0FFF1FE056FE4FA591B491F8
:1020F000FF2031F49FB7F8948C911095812304C090
:102100009FB7F8948C91812B8C939FBF1F910F9157
:10211000FF9008950F931F93482F50E0CA01805AF3
:102120009D4FFC012491CA01865E9D4FFC010491E4
:102130004C525E4FFA011491112319F420E030E063
:1021400015C0222319F0822F0E940310812F90E0E6
:10215000880F991F86549E4FFC01A591B4918C91D4
:1021600020E030E0802311F021E030E0C9011F9130
:102170000F9108955058BB27AA270ED075C166D17C
:1021800030F06BD120F031F49F3F11F41EF45BC1AD
:102190000EF4E095E7FB51C1E92F77D180F3BA1730
:1021A000620773078407950718F071F49EF58FC1D5
:1021B0000EF4E0950B2EBA2FA02D0B01B901900162
:1021C0000C01CA01A0011124FF27591B99F0593FA6
:1021D00050F4503E68F11A16F040A22F232F342FEE
:1021E0004427585FF3CF469537952795A795F0403C
:1021F0005395C9F77EF41F16BA0B620B730B840B51
:10220000BAF09150A1F0FF0FBB1F661F771F881F08
:10221000C2F70EC0BA0F621F731F841F48F4879560
:1022200077956795B795F7959E3F08F0B3CF93954F
:10223000880F08F09927EE0F979587950895D9D0C4
:1022400008F481E008950CD00FC107D140F0FED012
:1022500030F021F45F3F19F0F0C0511139C1F3C0E3
:1022600014D198F39923C9F35523B1F3951B550B5A
:10227000BB27AA2762177307840738F09F5F5F4F59
:10228000220F331F441FAA1FA9F333D00E2E3AF09A
:10229000E0E830D091505040E695001CCAF729D0B4
:1022A000FE2F27D0660F771F881FBB1F2617370703
:1022B0004807AB07B0E809F0BB0B802DBF01FF2733
:1022C00093585F4F2AF09E3F510568F0B6C000C199
:1022D0005F3FECF3983EDCF3869577956795B7956D
:1022E000F7959F5FC9F7880F911D9695879597F988
:1022F0000895E1E0660F771F881FBB1F6217730701
:102300008407BA0720F0621B730B840BBA0BEE1F15
:1023100088F7E095089504D06894B111D9C0089564
:10232000BCD088F09F5790F0B92F9927B751A0F0F3
:10233000D1F0660F771F881F991F1AF0BA95C9F759
:1023400012C0B13081F0C3D0B1E00895C0C0672F92
:10235000782F8827B85F39F0B93FCCF38695779509
:102360006795B395D9F73EF49095809570956195F2
:102370007F4F8F4F9F4F0895E89409C097FB3EF41D
:1023800090958095709561957F4F8F4F9F4F9923C2
:10239000A9F0F92F96E9BB279395F6958795779540
:1023A0006795B795F111F8CFFAF4BB0F11F460FF00
:1023B0001BC06F5F7F4F8F4F9F4F16C0882311F058
:1023C00096E911C0772321F09EE8872F762F05C06C
:1023D000662371F096E8862F70E060E02AF09A9507
:1023E000660F771F881FDAF7880F9695879597F9FC
:1023F0000895990F0008550FAA0BE0E8FEEF161696
:102400001706E807F907C0F012161306E407F507E8
:1024100098F0621B730B840B950B39F40A2661F05C
:10242000232B242B252B21F408950A2609F4A140FF
:10243000A6958FEF811D811D089597F99F6780E80C
:1024400070E060E008959FEF80EC089500240A9406
:102450001616170618060906089500240A9412167F
:102460001306140605060895092E0394000C11F4B2
:10247000882352F0BB0F40F4BF2B11F460FF04C05F
:102480006F5F7F4F8F4F9F4F089557FD9058440FB8
:10249000551F59F05F3F71F04795880F97FB991FC3
:1024A00061F09F3F79F08795089512161306140680
:1024B000551FF2CF4695F1DF08C01616170618060D
:1024C000991FF1CF86957105610508940895E894E8
:1024D000BB2766277727CB0197F908950BD0C4CF88
:1024E000B5DF28F0BADF18F0952309F0A6CFABCFFF
:1024F0001124EECFCADFA0F3959FD1F3950F50E0E2
:10250000551F629FF001729FBB27F00DB11D639FA5
:10251000AA27F00DB11DAA1F649F6627B00DA11D4B
:10252000661F829F2227B00DA11D621F739FB00DF1
:10253000A11D621F839FA00D611D221F749F332761
:10254000A00D611D231F849F600D211D822F762FFA
:102550006A2F11249F5750408AF0E1F088234AF0F7
:10256000EE0FFF1FBB1F661F771F881F9150504043
:10257000A9F79E3F510570F060CFAACF5F3FECF303
:10258000983EDCF3869577956795B795F795E7952F
:102590009F5FC1F7FE2B880F911D9695879597F940
:1025A0000895FA01EE0FFF1F30962105310599F1CC
:1025B0006115710561F48038BFE39B0749F16894A8
:1025C0009038810561F08038BFEF9B0741F0992377
:1025D00042F5FF3FE1053105210511F1E89408942A
:1025E000E795D901AA2329F4AB2FBE2FF85FD0F3CA
:1025F00010C0FF5F70F4A695E0F7F73950F019F0BE
:10260000FF3A38F49F779F930CD00F9007FC9058B7
:1026100008953EF018CF60E070E080E89FE30895F1
:102620004FE79F775F934F933F932F939ED02F91C8
:102630003F914F915F9152DF05C019F40EF0FDCE2E
:1026400046CF01CF2ADFC8F39638C0F707F80F92BC
:10265000E8942BE33AEA48EB5FE74EDF0F920F92E4
:102660000F924DB75EB70F92C0D0E4E0F1E016D004
:102670004F915F91EF91FF91E595EE1FFF1F49F09C
:10268000FE57E0684427EE0F441FFA95E1F74195A5
:10269000550B32D00F9007FE26C00895DF93CF93DD
:1026A0001F930F93FF92EF92DF927B018C0168944E
:1026B00005C0DA2EEF011EDFFE01E894A5912591F9
:1026C000359145915591AEF3EF0166DDFE0197011D
:1026D000A801DA9479F7DF90EF90FF900F911F91A6
:1026E000CF91DF9108959B01AC0160E070E080E83C
:1026F0009FE3A9CDA2CEACC0D0DEE8F39923D9F3F5
:10270000940F511DBBF39150504094F059F0882321
:1027100032F0660F771F881F91505040C1F79E3FDF
:10272000510544F7880F911D9695879597F908955F
:102730005F3FACF0983E9CF0BB27869577956795F8
:10274000B79508F4B1609395C1F7BB0F58F711F432
:1027500060FFE8CF6F5F7F4F8F4F9F4FE3CFB8CEC3
:102760000EF076C070CE689468CE97DEC8F39923D9
:10277000D1F3C6F3DF93CF931F930F93FF92C92F2B
:10278000DD2788232AF02197660F771F881FDAF745
:1027900020E030E040E85FEB9FE3883920F0803EA6
:1027A00030F021968F77E7DCECE2F1E003C0E3DC68
:1027B000E9E5F1E073DF8B01BE01EC01FB2E6F5701
:1027C00071097595771F880B990BD8DD28E132E7E1
:1027D00041E35FE38FDEAF2D9801AE01FF900F91D3
:1027E0001F91CF91DF91D8DC3FCEFA01DC01AA0F17
:1027F000BB1F9B01AC01BF5728F422273327442776
:1028000050781FC0B75188F4AB2F002446953795F8
:102810002795011CA395D2F3002069F0220F331FE6
:10282000441FB395DAF30DD0A5CC61307105A0E853
:102830008A07B94630F49B01AC01662777278827C1
:102840009078309621F0208331834283538308951A
:102850009F3F31F0915020F4879577956795B79514
:10286000880F911D9695879597F90895629FD001DD
:10287000739FF001829FE00DF11D649FE00DF11D3B
:10288000929FF00D839FF00D749FF00D659FF00DEA
:102890009927729FB00DE11DF91F639FB00DE11DD7
:1028A000F91FBD01CF0111240895AA1BBB1B51E1E3
:1028B00007C0AA1FBB1FA617B70710F0A61BB70BB0
:1028C000881F991F5A95A9F780959095BC01CD0155
:1028D000089597FB092E07260AD077FD04D0E5DF7F
:1028E00006D000201AF4709561957F4F0895F6F791
:1028F000909581959F4F0895A1E21A2EAA1BBB1BAC
:10290000FD010DC0AA1FBB1FEE1FFF1FA217B307BB
:10291000E407F50720F0A21BB30BE40BF50B661FD1
:10292000771F881F991F1A9469F760957095809595
:1029300090959B01AC01BD01CF01089597FB092E35
:1029400005260ED057FD04D0D7DF0AD0001C38F47E
:1029500050954095309521953F4F4F4F5F4F0895CB
:10296000F6F790958095709561957F4F8F4F9F4FAB
:1029700008952F923F924F925F926F927F928F9223
:102980009F92AF92BF92CF92DF92EF92FF920F93FE
:102990001F93CF93DF93CDB7DEB7CA1BDB0B0FB608
:1029A000F894DEBF0FBECDBF09942A8839884888C5
:1029B0005F846E847D848C849B84AA84B984C8845B
:1029C000DF80EE80FD800C811B81AA81B981CE0F52
:1029D000D11D0FB6F894DEBF0FBECDBFED01089537
:1029E000EE0FFF1F0590F491E02D0994F894FFCFAE
:1029F00064697374303A0009726177303A0064692F
:102A00007374313A0009726177313A00507265731C
:102A1000737572653A002054656D706572617475E6
:102A200072653A0020416C7469747564653A0052AD
:102A3000616E67652046696E6465722054657374C3
:102A40002076312E30002E000100000000D006A1BB
:102A50000687C797D7A7E7B7F700000000000E0763
:102A60000F0700000000BE074907100714075107B1
:102A700000000000BE074907100739075107000092
:102A80000000140CFE0C160DB90BE40BCA0B080C5D
:00000001FF
